15:44:52.188753 IP ip-37-201-199-223.hsi13.unitymediagroup.de.63812 > longus.karottika.de.27015: UDP, length 25
        0x0000:  4503 0035 5adf 0000 7211 04c8 25c9 c7df
        0x0010:  b23f 4926 f944 6987 0021 f517 ffff ffff
        0x0020:  5453 6f75 7263 6520 456e 6769 6e65 2051
        0x0030:  7565 7279 00
15:44:52.195053 IP longus.karottika.de.27015 > ip-37-201-199-223.hsi13.unitymediagroup.de.63812: UDP, length 176
        0x0000:  4500 00cc f880 4000 4011 5892 b23f 4926
        0x0010:  25c9 c7df 6987 f944 00b8 e9d7 ffff ffff
        0x0020:  4911 205b 4745 525d 5b44 5553 545f 3220
        0x0030:  4f4e 4c59 5d5b 5449 434b 2031 3238 5d48
        0x0040:  4621 0064 655f 6475 7374 3200 6373 676f
        0x0050:  0043 6f75 6e74 6572 2d53 7472 696b 653a
        0x0060:  2047 6c6f 6261 6c20 4f66 6665 6e73 6976
        0x0070:  6500 da02 010c 0064 6c00 0131 2e33 342e
        0x0080:  362e 3900 a187 6921 2c2a 2c31 3238 2c61
        0x0090:  7770 2c63 6173 7561 6c2c 6373 676f 2c64
        0x00a0:  655f 6475 7374 322c 6465 7574 7363 682c
        0x00b0:  6472 6f70 732c 6765 726d 616e 2c73 6563
        0x00c0:  7572 6500 da02 0000 0000 0000
15:44:52.224456 IP ip-37-201-199-223.hsi13.unitymediagroup.de.63813 > longus.karottika.de.27015: UDP, length 9
        0x0000:  4503 0025 5ae3 0000 7211 04d4 25c9 c7df
        0x0010:  b23f 4926 f945 6987 0011 5ef0 ffff ffff
        0x0020:  5500 0000 00
15:44:52.226391 IP longus.karottika.de.27015 > ip-37-201-199-223.hsi13.unitymediagroup.de.63813: UDP, length 9
        0x0000:  4500 0025 f881 4000 4011 5938 b23f 4926
        0x0010:  25c9 c7df 6987 f945 0011 e930 ffff ffff
        0x0020:  41b1 38d8 0a
15:44:52.247343 IP ip-37-201-199-223.hsi13.unitymediagroup.de.63813 > longus.karottika.de.27015: UDP, length 9
        0x0000:  4503 0025 5ae5 0000 7211 04d2 25c9 c7df
        0x0010:  b23f 4926 f945 6987 0011 1b67 ffff ffff
        0x0020:  55b1 38d8 0a
15:44:52.249751 IP longus.karottika.de.27015 > ip-37-201-199-223.hsi13.unitymediagroup.de.63813: UDP, length 19
        0x0000:  4500 002f f882 4000 4011 592d b23f 4926
        0x0010:  25c9 c7df 6987 f945 001b e93a ffff ffff
        0x0020:  4401 0062 4b27 0000 0000 00b0 d326 42